S01900004F435432325F496E746572666163696E672E73726563F8
S11300000C942A000C94F8010C941F020C944602E0
S11300100C9447000C9447000C94E6020C9498024C
S11300200C94BF020C9471020C9447000C9447008A
S11300300C9447000C9447000C9447000C94470020
S11300400C9447000C9447000C9447000C94470010
S11300500C94470011241FBECFE5D8E0DEBFCDBF0E
S113006010E0A0E6B0E0EEE1F6E002C005900D92EB
S1130070A03AB107D9F720E0A0EAB0E001C01D9290
S1130080AE3AB207E1F70E94B2000C940D030C944F
S11300900000CF93C82F60E089E00E94D30080E085
S11300A00E9455018F709C2F907F682F692B80E0F0
S11300B00E94670160E08BE00E94D3008FE891E02A
S11300C00197F1F700C0000061E08BE00E94D300CB
S11300D08FE19EE40197F1F700C0000080E00E94E8
S11300E055018F7090E1C99F90011124682F622BF4
S11300F080E00E94670160E08BE00E94D3008FE8FB
S113010091E00197F1F700C0000061E08BE00E94EC
S1130110D3008FE39FE10197F1F700C00000CF9176
S1130120089560E08AE00E94D30061E08BE00E94C1
S1130130D3002FEF89EF90E0215080409040E1F709
S113014000C0000083E30E94490082E30E9449004A
S113015088E20E94490086E00E9449008CE00E94E7
S1130160490008950E9477010E9491000E946D0247
S113017061E083E00E94D3002FEF89E698E12150EB
S113018080409040E1F700C0000060E083E00E94FE
S1130190D3002FEF87EA91E6215080409040E1F7A9
S11301A000C00000E5CF982F9770869586958695B8
S11301B0813021F130F08230F1F1833009F458C0FC
S11301C00895613069F44BB321E030E0B90102C015
S11301D0660F771F9A95E2F7CB01842B8BBB0895AA
S11301E04BB321E030E0B90102C0660F771F9A9546
S11301F0E2F7CB01809584238BBB0895613069F4C9
S113020048B321E030E0B90102C0660F771F9A9528
S1130210E2F7CB01842B88BB089548B321E030E09A
S1130220B90102C0660F771F9A95E2F7CB0180955A
S1130230842388BB0895613069F445B321E030E03C
S1130240B90102C0660F771F9A95E2F7CB01842BA0
S113025085BB089545B321E030E0B90102C0660FC3
S1130260771F9A95E2F7CB018095842385BB089587
S1130270613069F442B321E030E0B90102C0660F95
S1130280771F9A95E2F7CB01842B82BB089542B382
S113029021E030E0B90102C0660F771F9A95E2F7BA
S11302A0CB018095842382BB0895813041F028F0EE
S11302B0823039F0833039F008C08BB3089588B3A5
S11302C0089585B3089582B3089580E00895813038
S11302D041F028F0823039F0833039F008956BBB57
S11302E0089568BB089565BB089562BB0895E0E670
S11302F0F0E080E041E050E0282F2770982F969599
S113030096959695913009F130F09230C1F1933081
S113031009F44FC067C09081913059F49AB3BA017F
S113032002C0660F771F2A95E2F79B01292B2ABB8F
S113033059C03AB3BA0102C0660F771F2A95E2F793
S1130340962F909593239ABB4DC09081913059F488
S113035097B3BA0102C0660F771F2A95E2F79B0193
S1130360292B27BB3FC037B3BA0102C0660F771FE2
S11303702A95E2F7962F9095932397BB33C09081EB
S1130380913059F494B3BA0102C0660F771F2A95CD
S1130390E2F79B01292B24BB25C034B3BA0102C068
S11303A0660F771F2A95E2F7962F9095932394BBB7
S11303B019C09081913059F491B3BA0102C0660F0B
S11303C0771F2A95E2F79B01292B21BB0BC031B380
S11303D0BA0102C0660F771F2A95E2F7962F90950F
S11303E0932391BB8F5F3296803209F085CF0895B5
S11303F01F920F920FB60F9211242F933F934F9396
S11304005F936F937F938F939F93AF93BF93EF9378
S1130410FF93E091A400F091A5000995FF91EF915D
S1130420BF91AF919F918F917F916F915F914F9108
S11304303F912F910F900FBE0F901F9018951F9210
S11304400F920FB60F9211242F933F934F935F9304
S11304506F937F938F939F93AF93BF93EF93FF9388
S1130460E091A200F091A3000995FF91EF91BF9153
S1130470AF919F918F917F916F915F914F913F9138
S11304802F910F900FBE0F901F9018951F920F92EF
S11304900FB60F9211242F933F934F935F936F9353
S11304A07F938F939F93AF93BF93EF93FF93E091C9
S11304B0A000F091A1000995FF91EF91BF91AF9138
S11304C09F918F917F916F915F914F913F912F9168
S11304D00F900FBE0F901F9018958FB780688FBF35
S11304E008951F920F920FB60F9211242F933F93EA
S11304F04F935F936F937F938F939F93AF93BF9328
S1130500EF93FF93E091AC00F091AD000995FF915A
S1130510EF91BF91AF919F918F917F916F915F9177
S11305204F913F912F910F900FBE0F901F901895F0
S11305301F920F920FB60F9211242F933F934F9354
S11305405F936F937F938F939F93AF93BF93EF9337
S1130550FF93E091AA00F091AB000995FF91EF9110
S1130560BF91AF919F918F917F916F915F914F91C7
S11305703F912F910F900FBE0F901F9018951F92CF
S11305800F920FB60F9211242F933F934F935F93C3
S11305906F937F938F939F93AF93BF93EF93FF9347
S11305A0E091A800F091A9000995FF91EF91BF9106
S11305B0AF919F918F917F916F915F914F913F91F7
S11305C02F910F900FBE0F901F9018951F920F92AE
S11305D00FB60F9211242F933F934F935F936F9312
S11305E07F938F939F93AF93BF93EF93FF93E09188
S11305F0A600F091A7000995FF91EF91BF91AF91EB
S11306009F918F917F916F915F914F913F912F9126
S11106100F900FBE0F901F901895F894FFCF17
S113061E01010101010101010101010101010101B8
S113062E01010101010101010101010101010101A8
S113063E0101010101010101010101010101010198
S113064E010101010101010101010101000001018A
S9030000FC
