:100000000C9432000C94D6040C94FD040C9424053A
:100010000C944F000C944F000C94D2060C94840660
:100020000C94AB060C945D060C944F000C944F009E
:100030000C944F000C944F000C944F000C944F0004
:100040000C944F000C944F000C944F000C944F00F4
:100050000C944F009A05A405AE05B805C205CC0561
:10006000D605E00511241FBECFE5D8E0DEBFCDBF29
:1000700010E0A0E6B0E0EAE3F1E102C005900D92E5
:10008000A63DB107D9F720E0A6EDB0E001C01D9272
:10009000AA3EB207E1F70E94AD020C949B080C94B3
:1000A0000000CF93C82F60E089E00E942F0380E01A
:1000B0000E94B1038F709C2F907F682F692B80E086
:1000C0000E94C30360E08BE00E942F038FE891E061
:1000D0000197F1F700C0000061E08BE00E942F0360
:1000E0008FE19EE40197F1F700C0000080E00E94DC
:1000F000B1038F7090E1C99F90011124682F622B8A
:1001000080E00E94C30360E08BE00E942F038FE831
:1001100091E00197F1F700C0000061E08BE00E94E0
:100120002F038FE39FE10197F1F700C00000CF910B
:10013000089560E08AE00E942F0361E08BE00E9456
:100140002F032FEF89EF90E0215080409040E1F79E
:1001500000C0000083E30E94510082E30E9451002E
:1001600088E20E94510086E00E9451008CE00E94CB
:1001700051000895CF93C82F61E089E00E942F03BA
:1001800080E00E94B1038F709C2F907F682F692BB5
:1001900080E00E94C30360E08BE00E942F038FE8A1
:1001A00091E00197F1F700C0000061E08BE00E9450
:1001B0002F038FE19EE40197F1F700C0000080E07B
:1001C0000E94B1038F7090E1C99F90011124682FA4
:1001D000622B80E00E94C30360E08BE00E942F034B
:1001E0008FE891E00197F1F700C0000061E08BE03B
:1001F0000E942F038FE39FE10197F1F700C00000F9
:10020000CF9108950F931F93CF93FC018081882392
:1002100059F08F01C0E00E94BA00CF5FF801EC0FE7
:10022000F11D80818111F7CFCF911F910F9108951A
:1002300061E083E10E942F0360E084E10E942F03CC
:10024000089561E085E10E942F0360E086E10E944D
:100250002F03089561E08EE00E942F0360E08FE09D
:100260000E942F03089561E08CE00E942F0360E05C
:100270008DE00E942F03089560E083E10E942F0328
:1002800061E084E10E942F03089560E085E10E940F
:100290002F0361E086E10E942F03089560E08EE065
:1002A0000E942F0361E08FE00E942F03089560E019
:1002B0008CE00E942F0361E08DE00E942F030895DF
:1002C0000E942A010E9433010E9418010E9421010C
:1002D00088EA90E00E940201089587EB90E00E9476
:1002E000020181E00E94510060E083E10E942F033F
:1002F00060E085E10E942F0360E08CE00E942F0304
:1003000060E08EE00E942F0360E084E10E942F03F2
:1003100060E086E10E942F0360E08DE00E942F03E1
:1003200060E08FE00E942F0308958CEB90E00E9424
:1003300002010E942A010E9418012FE784EA9CE62C
:10034000215080409040E1F700C000000E946D0104
:100350002FEF89E698E1215080409040E1F700C0FE
:1003600000000E946001089589EC90E00E94020163
:100370000E944E010E943C012FE784EA9CE6215036
:1003800080409040E1F700C000000E946D012FEF17
:1003900089E698E1215080409040E1F700C00000DC
:1003A0000E94600108950E944E010E9457010E9420
:1003B0003C010E9445012FEF8DE292E221508040E6
:1003C0009040E1F700C000000E946D010895CF92B7
:1003D000DF92EF92FF92CF93DF93CDB7DEB72897EE
:1003E0000FB6F894DEBF0FBECDBF6B017C0161E09C
:1003F0008DE10E94D30388E0E0EAF0E0DE0111968F
:1004000001900D928A95E1F787E893E10E945A06E0
:10041000C701B6010E949C0720E030E04AE753E4A0
:100420000E94280820E030E044E353E40E94F906EB
:100430000E946B07CB0187509F4F0E945706CE0149
:1004400001960E944F0528960FB6F894DEBF0FBEA6
:10045000CDBFDF91CF91FF90EF90DF90CF900895C7
:100460008091E6009091E700A091E800B091E9004A
:100470000196A11DB11D8093E6009093E700A09323
:10048000E800B093E900089589B7846089BF80E3EC
:1004900092E00E9452061FBC8FB58E7F8FBD8FB534
:1004A0008D7F8FBD8EB5877F8EBD8EB58F7E8EBDC5
:1004B0008EB58E7F8EBD8EB582608EBD8EB58B7FE4
:1004C0008EBD8EB580648EBD88B7806288BF61E0C6
:1004D00080E00E942F0385E38A95F1F7000060E039
:1004E00080E00E942F0308B605FEFDCF1DBC1CBC9A
:1004F00017BC16BC1092E6001092E7001092E800BC
:100500001092E9008EB58F7B8EBD88B7806288BF60
:1005100008B605FEFDCF88B7806288BF89B78B7F9C
:1005200089BF26B537B58091E6009091E700A0918C
:10053000E800B091E900DC0199278827BC01CD01D2
:10054000620F731F811D911D0E949A0728E23EE7EA
:100550004CE05CE30E94280808950E9455040E9424
:1005600099000E944B0561E088E10E942F0360E042
:100570008AE10E942F030E9460010E9444020E94AF
:100580006B0761317105C8F761E083E00E942F03BA
:100590002FEF83EC99E0215080409040E1F700C0BC
:1005A00000000E946D0160E083E00E942F036AE575
:1005B00070E080E090E00E94E7012FEF8FE19EE481
:1005C000215080409040E1F700C0000066EA7FEFD4
:1005D0008FEF9FEF0E94E7012FEF8DE399E4215009
:1005E00080409040E1F700C000000E9444020E9459
:1005F0006B076093D7006EE071E080E090E00E94AE
:10060000E7012FEF8DE399E4215080409040E1F71E
:1006100000C000000E9444020E946B076093D60055
:100620006AE570E080E090E00E94E7012FEF8DE343
:1006300099E4215080409040E1F700C00000909183
:10064000D7008091D600891728F40E94D3010E9418
:10065000950193CF0E94D3010E94B4018ECF982FB1
:100660009770869586958695813021F130F082309D
:10067000F1F1833009F458C00895613069F44BB347
:1006800021E030E0B90102C0660F771F9A95E2F7CA
:10069000CB01842B8BBB08954BB321E030E0B90133
:1006A00002C0660F771F9A95E2F7CB0180958423ED
:1006B0008BBB0895613069F448B321E030E0B901A3
:1006C00002C0660F771F9A95E2F7CB01842B88BB97
:1006D000089548B321E030E0B90102C0660F771FEA
:1006E0009A95E2F7CB018095842388BB0895613009
:1006F00069F445B321E030E0B90102C0660F771F0D
:100700009A95E2F7CB01842B85BB089545B321E090
:1007100030E0B90102C0660F771F9A95E2F7CB016E
:100720008095842385BB0895613069F442B321E04C
:1007300030E0B90102C0660F771F9A95E2F7CB014E
:10074000842B82BB089542B321E030E0B90102C09E
:10075000660F771F9A95E2F7CB018095842382BBC1
:100760000895813041F028F0823039F0833039F03B
:1007700008C08BB3089588B3089585B3089582B3F4
:10078000089580E00895813041F028F0823039F0FA
:10079000833039F008956BBB089568BB089565BB3D
:1007A000089562BB0895982F9770869586958695D3
:1007B000813021F130F08230F1F1833009F458C0FA
:1007C000089561110EC04AB321E030E0B90102C0C2
:1007D000660F771F9A95E2F7CB01809584238ABB39
:1007E00008954AB321E030E0B90102C0660F771FD7
:1007F0009A95E2F7CB01842B8ABB089561110EC054
:1008000047B321E030E0B90102C0660F771F9A9527
:10081000E2F7CB018095842387BB089547B321E09D
:1008200030E0B90102C0660F771F9A95E2F7CB015D
:10083000842B87BB089561110EC044B321E030E0E2
:10084000B90102C0660F771F9A95E2F7CB01809538
:10085000842384BB089544B321E030E0B90102C091
:10086000660F771F9A95E2F7CB01842B84BB08951E
:1008700061110EC041B321E030E0B90102C0660F42
:10088000771F9A95E2F7CB018095842381BB089569
:1008900041B321E030E0B90102C0660F771F9A959D
:1008A000E2F7CB01842B81BB0895E0E6F0E080E025
:1008B00041E050E0282F2770982F969596959695B1
:1008C000913009F130F09230C1F1933009F44FC00A
:1008D00067C09081913059F49AB3BA0102C0660F93
:1008E000771F2A95E2F79B01292B2ABB59C03AB3FF
:1008F000BA0102C0660F771F2A95E2F7962F9095EE
:1009000093239ABB4DC09081913059F497B3BA01AB
:1009100002C0660F771F2A95E2F79B01292B27BBA0
:100920003FC037B3BA0102C0660F771F2A95E2F7BE
:10093000962F9095932397BB33C09081913059F4B3
:1009400094B3BA0102C0660F771F2A95E2F79B01A4
:10095000292B24BB25C034B3BA0102C0660F771F10
:100960002A95E2F7962F9095932394BB19C0908116
:10097000913059F491B3BA0102C0660F771F2A95DE
:10098000E2F79B01292B21BB0BC031B3BA0102C096
:10099000660F771F2A95E2F7962F9095932391BBC8
:1009A0008F5F3296803209F085CF08951F920F92A3
:1009B0000FB60F9211242F933F934F935F936F9332
:1009C0007F938F939F93AF93BF93EF93FF93E091A8
:1009D000DC00F091DD000995FF91EF91BF91AF919F
:1009E0009F918F917F916F915F914F913F912F9147
:1009F0000F900FBE0F901F9018951F920F920FB679
:100A00000F9211242F933F934F935F936F937F9394
:100A10008F939F93AF93BF93EF93FF93E091DA008F
:100A2000F091DB000995FF91EF91BF91AF919F91FC
:100A30008F917F916F915F914F913F912F910F9087
:100A40000FBE0F901F9018951F920F920FB60F9226
:100A500011242F933F934F935F936F937F938F93C3
:100A60009F93AF93BF93EF93FF93E091D800F091E2
:100A7000D9000995FF91EF91BF91AF919F918F910F
:100A80007F916F915F914F913F912F910F900FBE8A
:100A90000F901F9018958FB780688FBF0895CF93E0
:100AA000DF93EC018881813069F128F0823081F098
:100AB0008330D9F033C08FB58E7F8FBD8FB58D7FDA
:100AC0008FBD8EB5877F8EBD8EB58F7E8EBD26C0C5
:100AD0008FB58E7F8FBD8FB58D7F8FBD8EB58860B2
:100AE0008EBD8EB58F7E8EBD19C08FB58E7F8FBDAA
:100AF0008FB582608FBD8EB588608EBD8EB58061EA
:100B00008EBD0CC08FB581608FBD8FB582608FBDEB
:100B10008EB5877F8EBD8EB58F7E8EBDE9818E2F7F
:100B200090E08830910508F054C0FC01E65DFF4F6D
:100B30000C9495088EB58E7F8EBD8EB58D7F8EBD43
:100B40008EB58B7F8EBD45C08EB581608EBD8EB556
:100B50008D7F8EBD8EB58B7F8EBD3BC08EB58E7F5B
:100B60008EBD8EB582608EBD8EB58B7F8EBD31C041
:100B70008EB581608EBD8EB582608EBD8EB58B7F49
:100B80008EBD27C08EB58E7F8EBD8EB58D7F8EBDFE
:100B90008EB584608EBD1DC08EB581608EBD8EB554
:100BA0008D7F8EBD8EB584608EBD13C08EB58E7F59
:100BB0008EBD8EB582608EBD8EB584608EBD09C03F
:100BC0008EB581608EBD8EB582608EBD8EB584601F
:100BD0008EBD8A81823059F0833081F0811114C03A
:100BE0008FB58F7B8FBD8FB58F778FBD0DC08FB5C4
:100BF0008F7B8FBD8FB580688FBD06C08FB5806439
:100C00008FBD8FB580688FBD8B81823059F0833066
:100C100081F0811114C08FB58F7E8FBD8FB58F7D10
:100C20008FBD0DC08FB58F7E8FBD8FB580628FBD9C
:100C300006C08FB580618FBD8FB580628FBD8C81FE
:100C4000813031F489B7846089BF0E944B0503C0AD
:100C500089B78B7F89BF8D81813031F489B78061FD
:100C600089BF0E944B0503C089B78F7E89BF8E81E3
:100C7000813031F489B7886089BF0E944B0503C079
:100C800089B7877F89BF8F81813031F489B78062CE
:100C900089BF0E944B0503C089B78F7D89BFDF9153
:100CA000CF9108959093E5008093E40008959BBD53
:100CB0008ABD089597BD86BD08951F920F920FB605
:100CC0000F9211242F933F934F935F936F937F93D2
:100CD0008F939F93AF93BF93EF93FF93E091E400C3
:100CE000F091E5000995FF91EF91BF91AF919F9130
:100CF0008F917F916F915F914F913F912F910F90C5
:100D00000FBE0F901F9018951F920F920FB60F9263
:100D100011242F933F934F935F936F937F938F9300
:100D20009F93AF93BF93EF93FF93E091E200F09115
:100D3000E3000995FF91EF91BF91AF919F918F9142
:100D40007F916F915F914F913F912F910F900FBEC7
:100D50000F901F9018951F920F920FB60F921124AB
:100D60002F933F934F935F936F937F938F939F93B3
:100D7000AF93BF93EF93FF93E091E000F091E10018
:100D80000995FF91EF91BF91AF919F918F917F91C5
:100D90006F915F914F913F912F910F900FBE0F90E8
:100DA0001F9018951F920F920FB60F9211242F9338
:100DB0003F934F935F936F937F938F939F93AF93E3
:100DC000BF93EF93FF93E091DE00F091DF00099570
:100DD000FF91EF91BF91AF919F918F917F916F9113
:100DE0005F914F913F912F910F900FBE0F901F90E9
:100DF00018950E940D070C94EE070E94E70758F023
:100E00000E94E00740F029F45F3F29F00C94D707D7
:100E100051110C9422080C94DD070E94FF0768F31F
:100E20009923B1F3552391F3951B550BBB27AA27A3
:100E300062177307840738F09F5F5F4F220F331FDD
:100E4000441FAA1FA9F335D00E2E3AF0E0E832D0A5
:100E500091505040E695001CCAF72BD0FE2F29D0A8
:100E6000660F771F881FBB1F261737074807AB077A
:100E7000B0E809F0BB0B802DBF01FF2793585F4FEF
:100E80003AF09E3F510578F00C94D7070C94220855
:100E90005F3FE4F3983ED4F3869577956795B795D1
:100EA000F7959F5FC9F7880F911D9695879597F9DC
:100EB0000895E1E0660F771F881FBB1F6217730755
:100EC0008407BA0720F0621B730B840BBA0BEE1F6A
:100ED00088F7E09508950E94070888F09F5798F0DA
:100EE000B92F9927B751B0F0E1F0660F771F881F2F
:100EF000991F1AF0BA95C9F714C0B13091F00E9449
:100F00002108B1E008950C942108672F782F8827D5
:100F1000B85F39F0B93FCCF3869577956795B3956F
:100F2000D9F73EF490958095709561957F4F8F4FDE
:100F30009F4F0895E89409C097FB3EF490958095E3
:100F4000709561957F4F8F4F9F4F9923A9F0F92F8F
:100F500096E9BB279395F695879577956795B7950D
:100F6000F111F8CFFAF4BB0F11F460FF1BC06F5FF3
:100F70007F4F8F4F9F4F16C0882311F096E911C005
:100F8000772321F09EE8872F762F05C0662371F026
:100F900096E8862F70E060E02AF09A95660F771F3A
:100FA000881FDAF7880F9695879597F9089597F92E
:100FB0009F6780E870E060E008959FEF80EC0895FF
:100FC00000240A9416161706180609060895002428
:100FD0000A9412161306140605060895092E0394A2
:100FE000000C11F4882352F0BB0F40F4BF2B11F416
:100FF00060FF04C06F5F7F4F8F4F9F4F089557FD75
:101000009058440F551F59F05F3F71F04795880F76
:1010100097FB991F61F09F3F79F08795089512160D
:1010200013061406551FF2CF4695F1DF08C01616B9
:1010300017061806991FF1CF86957105610508946A
:101040000895E894BB2766277727CB0197F9089581
:101050000E943B080C94EE070E94E00738F00E94C3
:10106000E70720F0952311F00C94D7070C94DD07C7
:1010700011240C9422080E94FF0770F3959FC1F37E
:10108000950F50E0551F629FF001729FBB27F00D36
:10109000B11D639FAA27F00DB11DAA1F649F66278B
:1010A000B00DA11D661F829F2227B00DA11D621FDA
:1010B000739FB00DA11D621F839FA00D611D221F94
:1010C000749F3327A00D611D231F849F600D211D78
:1010D000822F762F6A2F11249F5750409AF0F1F0FB
:1010E00088234AF0EE0FFF1FBB1F661F771F881F64
:1010F00091505040A9F79E3F510580F00C94D707BE
:101100000C9422085F3FE4F3983ED4F386957795DC
:101110006795B795F795E7959F5FC1F7FE2B880F09
:10112000911D9695879597F90895EE0FFF1F0590ED
:0A113000F491E02D0994F894FFCF2C
:10113A000101010101010101010101010101010195
:10114A000101010101010101010101010101010185
:10115A000101010101010101010101010101010175
:10116A000101010101010101010101010000010167
:10117A0003030200000000006D6F76696E67206647
:10118A006F72776172640053746F70006D6F766965
:10119A006E67207269676874006D6F76696E672082
:0611AA006C656674000094
:00000001FF
